:0400000051EF00F0CC
:100008004782FACF01F0FBCF02F0E9CF03F0EACF45
:1000180004F0E1CF05F0E2CF06F0D9CF07F0DACF50
:1000280008F0F3CF09F0F4CF0AF0F6CF0BF0F7CFD2
:100038000CF0F8CF0DF0F5CF0EF047C00FF048C028
:1000480010F049C011F04AC012F0F250F29412C0F8
:100058004AF011C049F010C048F00FC047F00EC078
:10006800F5FF0DC0F8FF0CC0F7FF0BC0F6FF0AC084
:10007800F4FF09C0F3FF08C0DAFF07C0D9FF06C0C4
:10008800E2FF05C0E1FF04C0EAFF03C0E9FF02C0C8
:0E009800FBFF01C0FAFF47921100F1EF09F0E3
:10100000003000001CC020F01DC021F020C013F0F3
:1010100021C014F01EC015F01FC016F05EEC09F0E0
:1010200013C020F014C021F01A4A1B2A20502110AE
:10103000D8A4ECD71AC0D9FF1BC0DAFF000EDF6EB0
:101040001A06D8A01B061CC013F01DC014F01EC049
:1010500015F01FC016F0ABEC09F01350226E1CC047
:1010600013F01DC014F01EC015F01FC016F05EEC8A
:1010700009F013C01CF014C01DF0090E226402D048
:10108000070E2226300E22261AC0D9FF1BC0DAFF17
:1010900022C0DFFF1A06D8A01B061C501D10D8A4C2
:1010A000D2D71A4A1B2A1200000E2D6E000E2C6E8B
:1010B000720ED36E000E0F01396F000E0F013A6FE2
:1010C000000E0F01386FC00E936E000E946E928862
:1010D000680ED56EF60ED66EF28AF294F28CF28E0F
:1010E000D58E30EC09F0FEEC09F0010E186E100EF2
:1010F000196EF5EC08F080B8FED72C4A2D2A010EA7
:10110000156E010EA5EC08F02E0E1A6E000E1B6E69
:101110002CC01CF02DC01DF0000E1F6E0A0E1E6E9E
:1011200002EC08F02E0E186E000E196EF5EC08F0A9
:10113000070E296E170E286E6A0EE82EFED7282E8F
:10114000FCD7292EFAD700D0D6D7166E1604D8A40D
:1011500010D015507F0F196E19380F0B176E1950DC
:101160000F0B186E1750E2EC09F01850E2EC09F082
:101170001200020E1618D8A410D01550BF0F196E09
:1011800019380F0B176E19500F0B186E1750E2EC31
:1011900009F01850E2EC09F01200030E1618D8A45A
:1011A00010D015508F0F196E19380F0B176E19507C
:1011B0000F0B186E1750E2EC09F01850E2EC09F032
:1011C0001200040E1618D8A412001550CF0F196E75
:1011D00019380F0B176E19500F0B186E1750E2ECE1
:1011E00009F01850E2EC09F01200000E1D6E000E1E
:1011F0001C6E1BD01C5018241A6E1D5019201B6E1B
:101200001AC0F6FF1BC0F7FF000EF86E0F0EF76452
:1012100003D00800F55005D0F6CFE9FFF7CFEAFF7D
:10122000EF5087EC09F01C4A1D2A1C5018241A6E36
:101230001D5019201B6E1AC0F6FF1BC0F7FF000ED1
:10124000F86E0F0EF76403D00800F55005D0F6CF06
:10125000E9FFF7CFEAFFEF500009D8B41200CAD770
:10126000000ECCEC09F01A0EE82EFED700D0030ECB
:10127000E2EC09F0060EE82EFED700D0030EE2ECF9
:1012800009F00E0EE82EFED700D0030EE2EC09F0B6
:10129000020EE2EC09F0020EE2EC09F0080EE2ECBC
:1012A00009F0000EE2EC09F00C0EE2EC09F0000E81
:1012B000E2EC09F0060EE2EC09F01200000E186EE6
:1012C000000E176E15501610D8B41CD0010E196EF2
:1012D00004D0D89015361636192A16AEFAD7D890FB
:1012E000173618361550135C16501458D8A005D070
:1012F0001550135E1650145A1780D89016321532B6
:10130000192EEDD717C013F018C014F01200176E85
:1013100017500F0B156E1750F00B166E8280163893
:101320000F0BCCEC09F08282680E146EE40EE82EEE
:10133000FED7142EFCD700D082921550CCEC09F0C9
:101340008282680E146EE40EE82EFED7142EFCD7AF
:1013500000D08292120015501610D8B418D0010E89
:10136000176E04D0D89015361636172A16AEFAD74F
:101370001550135C16501458D8A004D01550135EA5
:101380001650145AD89016321532172EF1D713C0B2
:1013900013F014C014F01200136E13A002D0818851
:1013A00001D0819813A202D0818A01D0819A13A41E
:1013B00002D0828401D0829413A602D082861200C9
:1013C00082961200146E82901450CCEC09F0828246
:1013D000E40E00D000D0E82EFCD700D000D08292DE
:1013E000120000EE2AF01D0EEE6AE806FDE14790BD
:1013F0004792000EF86E000154EF08F0000EE2EC88
:0A14000009F0010EE2EC09F0120001
:020000040020DA
:08000000FFFFFFFFFFFFFFFF00
:020000040030CA
:0E000000FF281E3CFFBF81FF0FC00FE00F4026
:00000001FF
